{
  "contractName": "Medical",
  "abi": [
    {
      "constant": true,
      "inputs": [
        {
          "internalType": "string",
          "name": "",
          "type": "string"
        }
      ],
      "name": "doesDoctorHaveAccess",
      "outputs": [
        {
          "internalType": "bool",
          "name": "",
          "type": "bool"
        }
      ],
      "payable": false,
      "stateMutability": "view",
      "type": "function"
    },
    {
      "constant": true,
      "inputs": [],
      "name": "returnDoctorsPubKeys",
      "outputs": [
        {
          "internalType": "string[]",
          "name": "",
          "type": "string[]"
        }
      ],
      "payable": false,
      "stateMutability": "view",
      "type": "function"
    },
    {
      "constant": false,
      "inputs": [
        {
          "internalType": "string",
          "name": "a",
          "type": "string"
        }
      ],
      "name": "grantAccessToDoctor",
      "outputs": [],
      "payable": false,
      "stateMutability": "nonpayable",
      "type": "function"
    },
    {
      "constant": false,
      "inputs": [
        {
          "internalType": "string",
          "name": "a",
          "type": "string"
        }
      ],
      "name": "revokeAccessFromDoctor",
      "outputs": [],
      "payable": false,
      "stateMutability": "nonpayable",
      "type": "function"
    },
    {
      "constant": false,
      "inputs": [
        {
          "internalType": "string",
          "name": "a",
          "type": "string"
        }
      ],
      "name": "storeFileHash",
      "outputs": [],
      "payable": false,
      "stateMutability": "nonpayable",
      "type": "function"
    },
    {
      "constant": true,
      "inputs": [],
      "name": "getFileHash",
      "outputs": [
        {
          "internalType": "string",
          "name": "",
          "type": "string"
        }
      ],
      "payable": false,
      "stateMutability": "view",
      "type": "function"
    },
    {
      "constant": false,
      "inputs": [
        {
          "internalType": "string",
          "name": "a",
          "type": "string"
        }
      ],
      "name": "registerDoctor",
      "outputs": [],
      "payable": false,
      "stateMutability": "nonpayable",
      "type": "function"
    }
  ],
  "bytecode": "0x6080604052336000806101000a81548173ffffffffffffffffffffffffffffffffffffffff021916908373ffffffffffffffffffffffffffffffffffffffff16021790555034801561005057600080fd5b50610d28806100606000396000f3fe608060405234801561001057600080fd5b506004361061007d5760003560e01c80638493f71f1161005b5780638493f71f146100ec5780638f09ab5b1461010a578063f8f1cb6114610126578063fb6cbd06146101425761007d565b80631af36f59146100825780635c2ae735146100b2578063843c56a3146100d0575b600080fd5b61009c600480360361009791908101906108cc565b61015e565b6040516100a99190610b28565b60405180910390f35b6100ba610194565b6040516100c79190610b06565b60405180910390f35b6100ea60048036036100e5919081019061090d565b61030c565b005b6100f46103d5565b6040516101019190610b43565b60405180910390f35b610124600480360361011f919081019061090d565b610506565b005b610140600480360361013b919081019061090d565b61060e565b005b61015c6004803603610157919081019061090d565b6106d6565b005b6001818051602081018201805184825260208301602085012081835280955050505050506000915054906101000a900460ff1681565b60606000809054906101000a900473ffffffffffffffffffffffffffffffffffffffff1673ffffffffffffffffffffffffffffffffffffffff163373ffffffffffffffffffffffffffffffffffffffff1614610225576040517f08c379a000000000000000000000000000000000000000000000000000000000815260040161021c90610b65565b60405180910390fd5b6002805480602002602001604051908101604052809291908181526020016000905b82821015610303578382906000526020600020018054600181600116156101000203166002900480601f0160208091040260200160405190810160405280929190818152602001828054600181600116156101000203166002900480156102ef5780601f106102c4576101008083540402835291602001916102ef565b820191906000526020600020905b8154815290600101906020018083116102d257829003601f168201915b505050505081526020019060010190610247565b50505050905090565b6000809054906101000a900473ffffffffffffffffffffffffffffffffffffffff1673ffffffffffffffffffffffffffffffffffffffff163373ffffffffffffffffffffffffffffffffffffffff161461039b576040517f08c379a000000000000000000000000000000000000000000000000000000000815260040161039290610b65565b60405180910390fd5b60006001826040516103ad9190610aef565b908152602001604051809103902060006101000a81548160ff02191690831515021790555050565b60606000809054906101000a900473ffffffffffffffffffffffffffffffffffffffff1673ffffffffffffffffffffffffffffffffffffffff163373ffffffffffffffffffffffffffffffffffffffff1614610466576040517f08c379a000000000000000000000000000000000000000000000000000000000815260040161045d90610b65565b60405180910390fd5b60038054600181600116156101000203166002900480601f0160208091040260200160405190810160405280929190818152602001828054600181600116156101000203166002900480156104fc5780601f106104d1576101008083540402835291602001916104fc565b820191906000526020600020905b8154815290600101906020018083116104df57829003601f168201915b5050505050905090565b6000809054906101000a900473ffffffffffffffffffffffffffffffffffffffff1673ffffffffffffffffffffffffffffffffffffffff163373ffffffffffffffffffffffffffffffffffffffff1614610595576040517f08c379a000000000000000000000000000000000000000000000000000000000815260040161058c90610b65565b60405180910390fd5b60028190806001815401808255809150509060018203906000526020600020016000909192909190915090805190602001906105d292919061077f565b505060006001826040516105e69190610aef565b908152602001604051809103902060006101000a81548160ff02191690831515021790555050565b6000809054906101000a900473ffffffffffffffffffffffffffffffffffffffff1673ffffffffffffffffffffffffffffffffffffffff163373ffffffffffffffffffffffffffffffffffffffff161461069d576040517f08c379a000000000000000000000000000000000000000000000000000000000815260040161069490610b65565b60405180910390fd5b600180826040516106ae9190610aef565b908152602001604051809103902060006101000a81548160ff02191690831515021790555050565b6000809054906101000a900473ffffffffffffffffffffffffffffffffffffffff1673ffffffffffffffffffffffffffffffffffffffff163373ffffffffffffffffffffffffffffffffffffffff1614610765576040517f08c379a000000000000000000000000000000000000000000000000000000000815260040161075c90610b65565b60405180910390fd5b806003908051906020019061077b92919061077f565b5050565b828054600181600116156101000203166002900490600052602060002090601f016020900481019282601f106107c057805160ff19168380011785556107ee565b828001600101855582156107ee579182015b828111156107ed5782518255916020019190600101906107d2565b5b5090506107fb91906107ff565b5090565b61082191905b8082111561081d576000816000905550600101610805565b5090565b90565b600082601f83011261083557600080fd5b813561084861084382610bb2565b610b85565b9150808252602083016020830185838301111561086457600080fd5b61086f838284610c92565b50505092915050565b600082601f83011261088957600080fd5b813561089c61089782610bde565b610b85565b915080825260208301602083018583830111156108b857600080fd5b6108c3838284610c92565b50505092915050565b6000602082840312156108de57600080fd5b600082013567ffffffffffffffff8111156108f857600080fd5b61090484828501610824565b91505092915050565b60006020828403121561091f57600080fd5b600082013567ffffffffffffffff81111561093957600080fd5b61094584828501610878565b91505092915050565b600061095a8383610a50565b905092915050565b600061096d82610c1a565b6109778185610c48565b93508360208202850161098985610c0a565b8060005b858110156109c557848403895281516109a6858261094e565b94506109b183610c3b565b925060208a0199505060018101905061098d565b50829750879550505050505092915050565b6109e081610c86565b82525050565b60006109f182610c30565b6109fb8185610c6a565b9350610a0b818560208601610ca1565b610a1481610cd4565b840191505092915050565b6000610a2a82610c30565b610a348185610c7b565b9350610a44818560208601610ca1565b80840191505092915050565b6000610a5b82610c25565b610a658185610c59565b9350610a75818560208601610ca1565b610a7e81610cd4565b840191505092915050565b6000610a96602683610c6a565b91507f596f7520617265206e6f7420746865206f776e6572206f66207468697320636f60008301527f6e747261637400000000000000000000000000000000000000000000000000006020830152604082019050919050565b6000610afb8284610a1f565b915081905092915050565b60006020820190508181036000830152610b208184610962565b905092915050565b6000602082019050610b3d60008301846109d7565b92915050565b60006020820190508181036000830152610b5d81846109e6565b905092915050565b60006020820190508181036000830152610b7e81610a89565b9050919050565b6000604051905081810181811067ffffffffffffffff82111715610ba857600080fd5b8060405250919050565b600067ffffffffffffffff821115610bc957600080fd5b601f19601f8301169050602081019050919050565b600067ffffffffffffffff821115610bf557600080fd5b601f19601f8301169050602081019050919050565b6000819050602082019050919050565b600081519050919050565b600081519050919050565b600081519050919050565b6000602082019050919050565b600082825260208201905092915050565b600082825260208201905092915050565b600082825260208201905092915050565b600081905092915050565b60008115159050919050565b82818337600083830152505050565b60005b83811015610cbf578082015181840152602081019050610ca4565b83811115610cce576000848401525b50505050565b6000601f19601f830116905091905056fea365627a7a72315820a25a792ecfb5bebc1c0c8c83edc7133b871aa957cf05031aaa9076bef5362e516c6578706572696d656e74616cf564736f6c63430005100040",
  "source": "pragma solidity ^0.5.16;\npragma experimental ABIEncoderV2;\n\ncontract Medical{\n    address private owner = msg.sender;\n    mapping(string => bool) public doesDoctorHaveAccess;\n    string[] private doctorsPubKeys;\n    string private documentHash;\n\n    function returnDoctorsPubKeys() public isOwner() view returns(string[] memory)  {\n        return doctorsPubKeys;\n    }\n\n    function grantAccessToDoctor ( string memory a ) public isOwner() {\n        doesDoctorHaveAccess[a] = true;\n    }\n\n    function revokeAccessFromDoctor ( string memory a )  public isOwner() {\n        doesDoctorHaveAccess[a] = false;\n    }\n\n    function storeFileHash ( string memory a )  public isOwner(){\n        documentHash = a;\n    }\n\n    function getFileHash () public isOwner() view  returns(string memory) {\n        return documentHash;\n    }\n\n    function registerDoctor ( string memory a   )  public isOwner(){\n        doctorsPubKeys.push(a);\n        doesDoctorHaveAccess[a] = false;\n    }\n\n    modifier userExists(address _userId) {\n        require (_userId != address(0x0), 'The user should exist');\n        _;\n    }\n\n    modifier isOwner() {\n        require(msg.sender == owner, 'You are not the owner of this contract');\n        _;\n    }\n\n    modifier reject() {\n        require(true == false, 'Not reasonable');\n        _;\n    }\n\n }",
  "sourcePath": "C:\\Users\\youss\\Documents\\Courses\\blockchain_software\\project\\dapp\\src\\contracts\\Medical.sol",
  "compiler": {
    "name": "solc",
    "version": "0.5.16+commit.9c3226ce.Emscripten.clang"
  },
  "schemaVersion": "3.0.23",
  "updatedAt": "2020-03-15T01:58:39.607Z",
  "networkType": "ethereum",
  "devdoc": {
    "methods": {}
  },
  "userdoc": {
    "methods": {}
  }
}