{
  "contractName": "Medical",
  "abi": [
    {
      "inputs": [],
      "payable": false,
      "stateMutability": "nonpayable",
      "type": "constructor"
    },
    {
      "constant": true,
      "inputs": [
        {
          "internalType": "uint256",
          "name": "",
          "type": "uint256"
        }
      ],
      "name": "doctorsAddresses",
      "outputs": [
        {
          "internalType": "address",
          "name": "",
          "type": "address"
        }
      ],
      "payable": false,
      "stateMutability": "view",
      "type": "function"
    },
    {
      "constant": true,
      "inputs": [
        {
          "internalType": "address",
          "name": "",
          "type": "address"
        }
      ],
      "name": "doesDoctorHaveAccess",
      "outputs": [
        {
          "internalType": "bool",
          "name": "",
          "type": "bool"
        }
      ],
      "payable": false,
      "stateMutability": "view",
      "type": "function"
    },
    {
      "constant": true,
      "inputs": [
        {
          "internalType": "address",
          "name": "_patientID",
          "type": "address"
        }
      ],
      "name": "accessDocument",
      "outputs": [
        {
          "internalType": "address",
          "name": "",
          "type": "address"
        }
      ],
      "payable": false,
      "stateMutability": "view",
      "type": "function"
    },
    {
      "constant": true,
      "inputs": [],
      "name": "returnDoctorsAddresses",
      "outputs": [
        {
          "internalType": "address[]",
          "name": "",
          "type": "address[]"
        }
      ],
      "payable": false,
      "stateMutability": "view",
      "type": "function"
    },
    {
      "constant": false,
      "inputs": [
        {
          "internalType": "address",
          "name": "a",
          "type": "address"
        }
      ],
      "name": "grantAccessToDoctor",
      "outputs": [],
      "payable": false,
      "stateMutability": "nonpayable",
      "type": "function"
    },
    {
      "constant": false,
      "inputs": [
        {
          "internalType": "address",
          "name": "a",
          "type": "address"
        }
      ],
      "name": "revokeAccessFromDoctor",
      "outputs": [],
      "payable": false,
      "stateMutability": "nonpayable",
      "type": "function"
    },
    {
      "constant": false,
      "inputs": [
        {
          "internalType": "address",
          "name": "a",
          "type": "address"
        }
      ],
      "name": "registerDoctor",
      "outputs": [],
      "payable": false,
      "stateMutability": "nonpayable",
      "type": "function"
    },
    {
      "constant": true,
      "inputs": [
        {
          "internalType": "address",
          "name": "_patientID",
          "type": "address"
        }
      ],
      "name": "ListOfDoctors",
      "outputs": [
        {
          "internalType": "address[]",
          "name": "",
          "type": "address[]"
        }
      ],
      "payable": false,
      "stateMutability": "view",
      "type": "function"
    }
  ],
  "bytecode": "0x608060405234801561001057600080fd5b50336000806101000a81548173ffffffffffffffffffffffffffffffffffffffff021916908373ffffffffffffffffffffffffffffffffffffffff160217905550610a96806100606000396000f3fe608060405234801561001057600080fd5b50600436106100885760003560e01c8063699ca9981161005b578063699ca998146101135780638776a6d31461012f5780639a7ee77f1461015f578063c17341941461018f57610088565b80631c8e251c1461008d5780631f12cfc4146100a95780635081ea0d146100c7578063629e559d146100f7575b600080fd5b6100a760048036036100a29190810190610760565b6101bf565b005b6100b161028b565b6040516100be9190610916565b60405180910390f35b6100e160048036036100dc9190810190610760565b610319565b6040516100ee91906108fb565b60405180910390f35b610111600480360361010c9190810190610760565b61044a565b005b61012d60048036036101289190810190610760565b610517565b005b61014960048036036101449190810190610760565b6105d8565b6040516101569190610938565b60405180910390f35b61017960048036036101749190810190610789565b6105f8565b60405161018691906108fb565b60405180910390f35b6101a960048036036101a49190810190610760565b610634565b6040516101b69190610916565b60405180910390f35b80600073ffffffffffffffffffffffffffffffffffffffff168173ffffffffffffffffffffffffffffffffffffffff161415610230576040517f08c379a000000000000000000000000000000000000000000000000000000000815260040161022790610953565b60405180910390fd5b60018060008473ffffffffffffffffffffffffffffffffffffffff1673ffffffffffffffffffffffffffffffffffffffff16815260200190815260200160002060006101000a81548160ff0219169083151502179055505050565b6060600280548060200260200160405190810160405280929190818152602001828054801561030f57602002820191906000526020600020905b8160009054906101000a900473ffffffffffffffffffffffffffffffffffffffff1673ffffffffffffffffffffffffffffffffffffffff16815260200190600101908083116102c5575b5050505050905090565b600081600073ffffffffffffffffffffffffffffffffffffffff168173ffffffffffffffffffffffffffffffffffffffff16141561038c576040517f08c379a000000000000000000000000000000000000000000000000000000000815260040161038390610953565b60405180910390fd5b60011515600160003373ffffffffffffffffffffffffffffffffffffffff1673ffffffffffffffffffffffffffffffffffffffff16815260200190815260200160002060009054906101000a900460ff1615151461041f576040517f08c379a000000000000000000000000000000000000000000000000000000000815260040161041690610973565b60405180910390fd5b600360009054906101000a900473ffffffffffffffffffffffffffffffffffffffff16915050919050565b80600073ffffffffffffffffffffffffffffffffffffffff168173ffffffffffffffffffffffffffffffffffffffff1614156104bb576040517f08c379a00000000000000000000000000000000000000000000000000000000081526004016104b290610953565b60405180910390fd5b6000600160008473ffffffffffffffffffffffffffffffffffffffff1673ffffffffffffffffffffffffffffffffffffffff16815260200190815260200160002060006101000a81548160ff0219169083151502179055505050565b60028190806001815401808255809150509060018203906000526020600020016000909192909190916101000a81548173ffffffffffffffffffffffffffffffffffffffff021916908373ffffffffffffffffffffffffffffffffffffffff160217905550506000600160008373ffffffffffffffffffffffffffffffffffffffff1673ffffffffffffffffffffffffffffffffffffffff16815260200190815260200160002060006101000a81548160ff02191690831515021790555050565b60016020528060005260406000206000915054906101000a900460ff1681565b6002818154811061060557fe5b906000526020600020016000915054906101000a900473ffffffffffffffffffffffffffffffffffffffff1681565b606081600073ffffffffffffffffffffffffffffffffffffffff168173ffffffffffffffffffffffffffffffffffffffff1614156106a7576040517f08c379a000000000000000000000000000000000000000000000000000000000815260040161069e90610953565b60405180910390fd5b600280548060200260200160405190810160405280929190818152602001828054801561072957602002820191906000526020600020905b8160009054906101000a900473ffffffffffffffffffffffffffffffffffffffff1673ffffffffffffffffffffffffffffffffffffffff16815260200190600101908083116106df575b5050505050915050919050565b60008135905061074581610a25565b92915050565b60008135905061075a81610a3c565b92915050565b60006020828403121561077257600080fd5b600061078084828501610736565b91505092915050565b60006020828403121561079b57600080fd5b60006107a98482850161074b565b91505092915050565b60006107be83836107ca565b60208301905092915050565b6107d3816109dd565b82525050565b6107e2816109dd565b82525050565b60006107f3826109a3565b6107fd81856109bb565b935061080883610993565b8060005b8381101561083957815161082088826107b2565b975061082b836109ae565b92505060018101905061080c565b5085935050505092915050565b61084f816109ef565b82525050565b60006108626015836109cc565b91507f54686520757365722073686f756c6420657869737400000000000000000000006000830152602082019050919050565b60006108a2603d836109cc565b91507f596f7520646f206e6f74206861766520616e2061636365737320746f2074686960008301527f732070617469656e742773206d65646963616c207265636f72647320210000006020830152604082019050919050565b600060208201905061091060008301846107d9565b92915050565b6000602082019050818103600083015261093081846107e8565b905092915050565b600060208201905061094d6000830184610846565b92915050565b6000602082019050818103600083015261096c81610855565b9050919050565b6000602082019050818103600083015261098c81610895565b9050919050565b6000819050602082019050919050565b600081519050919050565b6000602082019050919050565b600082825260208201905092915050565b600082825260208201905092915050565b60006109e8826109fb565b9050919050565b60008115159050919050565b600073ffffffffffffffffffffffffffffffffffffffff82169050919050565b6000819050919050565b610a2e816109dd565b8114610a3957600080fd5b50565b610a4581610a1b565b8114610a5057600080fd5b5056fea365627a7a7231582036a1d734723e717c63c9ceb20f6fc8687d3176aa8e8cf9049bc65dc16e8ef39a6c6578706572696d656e74616cf564736f6c63430005100040",
  "source": "pragma solidity ^0.5.6;\npragma experimental ABIEncoderV2;\n\ncontract Medical{\n    address owner;\n    constructor() public{\n        owner = msg.sender;\n    }\n    mapping(address => bool) public doesDoctorHaveAccess;\n    address[] public doctorsAddresses;\n    address private document;\n    function accessDocument ( address _patientID ) public view   userExists(_patientID) returns(address ){\n        require (doesDoctorHaveAccess [msg.sender] == true, \"You do not have an access to this patient's medical records !\");\n        return document;\n    }\n\n    function returnDoctorsAddresses() public view returns(address[] memory) {\n        return doctorsAddresses;\n    }\n\n\n    function grantAccessToDoctor ( address a ) public userExists(a) {\n        doesDoctorHaveAccess[a] = true;\n    }\n\n    function revokeAccessFromDoctor ( address a )  public userExists(a) {\n        doesDoctorHaveAccess[a] = false;\n    }\n\n\n    function registerDoctor ( address a  )  public {\n        doctorsAddresses.push(a);\n        doesDoctorHaveAccess[a] = false;\n    }\n\n    function ListOfDoctors(address _patientID) public view  userExists(_patientID) returns(address[] memory) {\n        return doctorsAddresses;\n    }\n\n    modifier userExists(address _userId) {\n        require (_userId != address(0x0), 'The user should exist');\n        _;\n    }\n\n }",
  "sourcePath": "C:\\Users\\youss\\Documents\\Courses\\blockchain_software\\week10\\EthbayDappReact\\src\\contracts\\Medical.sol",
  "compiler": {
    "name": "solc",
    "version": "0.5.16+commit.9c3226ce.Emscripten.clang"
  },
  "schemaVersion": "3.0.23",
  "updatedAt": "2020-03-12T22:34:20.507Z",
  "networkType": "ethereum",
  "devdoc": {
    "methods": {}
  },
  "userdoc": {
    "methods": {}
  }
}