{
  "contractName": "Medical",
  "abi": [
    {
      "inputs": [],
      "payable": false,
      "stateMutability": "nonpayable",
      "type": "constructor"
    },
    {
      "constant": true,
      "inputs": [
        {
          "internalType": "uint256",
          "name": "",
          "type": "uint256"
        }
      ],
      "name": "doctorsPubKeys",
      "outputs": [
        {
          "internalType": "string",
          "name": "",
          "type": "string"
        }
      ],
      "payable": false,
      "stateMutability": "view",
      "type": "function"
    },
    {
      "constant": true,
      "inputs": [
        {
          "internalType": "string",
          "name": "",
          "type": "string"
        }
      ],
      "name": "doesDoctorHaveAccess",
      "outputs": [
        {
          "internalType": "bool",
          "name": "",
          "type": "bool"
        }
      ],
      "payable": false,
      "stateMutability": "view",
      "type": "function"
    },
    {
      "constant": true,
      "inputs": [],
      "name": "returnDoctorsPubKeys",
      "outputs": [
        {
          "internalType": "string[]",
          "name": "",
          "type": "string[]"
        }
      ],
      "payable": false,
      "stateMutability": "view",
      "type": "function"
    },
    {
      "constant": false,
      "inputs": [
        {
          "internalType": "string",
          "name": "a",
          "type": "string"
        }
      ],
      "name": "grantAccessToDoctor",
      "outputs": [],
      "payable": false,
      "stateMutability": "nonpayable",
      "type": "function"
    },
    {
      "constant": false,
      "inputs": [
        {
          "internalType": "string",
          "name": "a",
          "type": "string"
        }
      ],
      "name": "revokeAccessFromDoctor",
      "outputs": [],
      "payable": false,
      "stateMutability": "nonpayable",
      "type": "function"
    },
    {
      "constant": false,
      "inputs": [
        {
          "internalType": "string",
          "name": "a",
          "type": "string"
        }
      ],
      "name": "registerDoctor",
      "outputs": [],
      "payable": false,
      "stateMutability": "nonpayable",
      "type": "function"
    },
    {
      "constant": true,
      "inputs": [],
      "name": "ListOfDoctors",
      "outputs": [
        {
          "internalType": "string[]",
          "name": "",
          "type": "string[]"
        }
      ],
      "payable": false,
      "stateMutability": "view",
      "type": "function"
    }
  ],
  "bytecode": "0x608060405234801561001057600080fd5b50336000806101000a81548173ffffffffffffffffffffffffffffffffffffffff021916908373ffffffffffffffffffffffffffffffffffffffff160217905550610aa1806100606000396000f3fe608060405234801561001057600080fd5b506004361061007d5760003560e01c80638f09ab5b1161005b5780638f09ab5b146100ec5780639850422214610108578063d2fc4c3c14610138578063f8f1cb61146101565761007d565b80631af36f59146100825780635c2ae735146100b2578063843c56a3146100d0575b600080fd5b61009c60048036036100979190810190610681565b610172565b6040516100a991906108a0565b60405180910390f35b6100ba6101a8565b6040516100c7919061087e565b60405180910390f35b6100ea60048036036100e591908101906106c2565b610291565b005b610106600480360361010191908101906106c2565b6102cb565b005b610122600480360361011d9190810190610703565b610344565b60405161012f91906108bb565b60405180910390f35b6101406103fd565b60405161014d919061087e565b60405180910390f35b610170600480360361016b91908101906106c2565b6104e6565b005b6001818051602081018201805184825260208301602085012081835280955050505050506000915054906101000a900460ff1681565b60606002805480602002602001604051908101604052809291908181526020016000905b82821015610288578382906000526020600020018054600181600116156101000203166002900480601f0160208091040260200160405190810160405280929190818152602001828054600181600116156101000203166002900480156102745780601f1061024957610100808354040283529160200191610274565b820191906000526020600020905b81548152906001019060200180831161025757829003601f168201915b5050505050815260200190600101906101cc565b50505050905090565b60006001826040516102a39190610867565b908152602001604051809103902060006101000a81548160ff02191690831515021790555050565b600281908060018154018082558091505090600182039060005260206000200160009091929091909150908051906020019061030892919061051f565b5050600060018260405161031c9190610867565b908152602001604051809103902060006101000a81548160ff02191690831515021790555050565b6002818154811061035157fe5b906000526020600020016000915090508054600181600116156101000203166002900480601f0160208091040260200160405190810160405280929190818152602001828054600181600116156101000203166002900480156103f55780601f106103ca576101008083540402835291602001916103f5565b820191906000526020600020905b8154815290600101906020018083116103d857829003601f168201915b505050505081565b60606002805480602002602001604051908101604052809291908181526020016000905b828210156104dd578382906000526020600020018054600181600116156101000203166002900480601f0160208091040260200160405190810160405280929190818152602001828054600181600116156101000203166002900480156104c95780601f1061049e576101008083540402835291602001916104c9565b820191906000526020600020905b8154815290600101906020018083116104ac57829003601f168201915b505050505081526020019060010190610421565b50505050905090565b600180826040516104f79190610867565b908152602001604051809103902060006101000a81548160ff02191690831515021790555050565b828054600181600116156101000203166002900490600052602060002090601f016020900481019282601f1061056057805160ff191683800117855561058e565b8280016001018555821561058e579182015b8281111561058d578251825591602001919060010190610572565b5b50905061059b919061059f565b5090565b6105c191905b808211156105bd5760008160009055506001016105a5565b5090565b90565b600082601f8301126105d557600080fd5b81356105e86105e38261090a565b6108dd565b9150808252602083016020830185838301111561060457600080fd5b61060f8382846109f4565b50505092915050565b600082601f83011261062957600080fd5b813561063c61063782610936565b6108dd565b9150808252602083016020830185838301111561065857600080fd5b6106638382846109f4565b50505092915050565b60008135905061067b81610a47565b92915050565b60006020828403121561069357600080fd5b600082013567ffffffffffffffff8111156106ad57600080fd5b6106b9848285016105c4565b91505092915050565b6000602082840312156106d457600080fd5b600082013567ffffffffffffffff8111156106ee57600080fd5b6106fa84828501610618565b91505092915050565b60006020828403121561071557600080fd5b60006107238482850161066c565b91505092915050565b600061073883836107f5565b905092915050565b600061074b82610972565b61075581856109a0565b93508360208202850161076785610962565b8060005b858110156107a35784840389528151610784858261072c565b945061078f83610993565b925060208a0199505060018101905061076b565b50829750879550505050505092915050565b6107be816109de565b82525050565b60006107cf82610988565b6107d981856109d3565b93506107e9818560208601610a03565b80840191505092915050565b60006108008261097d565b61080a81856109b1565b935061081a818560208601610a03565b61082381610a36565b840191505092915050565b60006108398261097d565b61084381856109c2565b9350610853818560208601610a03565b61085c81610a36565b840191505092915050565b600061087382846107c4565b915081905092915050565b600060208201905081810360008301526108988184610740565b905092915050565b60006020820190506108b560008301846107b5565b92915050565b600060208201905081810360008301526108d5818461082e565b905092915050565b6000604051905081810181811067ffffffffffffffff8211171561090057600080fd5b8060405250919050565b600067ffffffffffffffff82111561092157600080fd5b601f19601f8301169050602081019050919050565b600067ffffffffffffffff82111561094d57600080fd5b601f19601f8301169050602081019050919050565b6000819050602082019050919050565b600081519050919050565b600081519050919050565b600081519050919050565b6000602082019050919050565b600082825260208201905092915050565b600082825260208201905092915050565b600082825260208201905092915050565b600081905092915050565b60008115159050919050565b6000819050919050565b82818337600083830152505050565b60005b83811015610a21578082015181840152602081019050610a06565b83811115610a30576000848401525b50505050565b6000601f19601f8301169050919050565b610a50816109ea565b8114610a5b57600080fd5b5056fea365627a7a723158209d187bdb9c7b01dfbf05ff30a7a8fb76391969e2433e1bbdb3daf9235b0190786c6578706572696d656e74616cf564736f6c63430005100040",
  "source": "pragma solidity ^0.5.16;\npragma experimental ABIEncoderV2;\n\ncontract Medical{\n    address owner;\n    constructor() public{\n        owner = msg.sender;\n    }\n    mapping(string => bool) public doesDoctorHaveAccess;\n    string[] public doctorsPubKeys;\n    address private document;\n    // function accessDocument ( address _patientID ) public view   userExists(_patientID) returns(address ){\n    //     require (doesDoctorHaveAccess [msg.sender] == true, \"You do not have an access to this patient's medical records !\");\n    //     return document;\n    // }\n\n    function returnDoctorsPubKeys() public view returns(string[] memory) {\n        return doctorsPubKeys;\n    }\n\n\n    function grantAccessToDoctor ( string memory a ) public {\n        doesDoctorHaveAccess[a] = true;\n    }\n\n    function revokeAccessFromDoctor ( string memory a )  public {\n        doesDoctorHaveAccess[a] = false;\n    }\n\n\n    function registerDoctor ( string memory a   )  public {\n        doctorsPubKeys.push(a);\n        doesDoctorHaveAccess[a] = false;\n    }\n\n    function ListOfDoctors() public view  returns(string[] memory) {\n        return doctorsPubKeys;\n    }\n\n    modifier userExists(address _userId) {\n        require (_userId != address(0x0), 'The user should exist');\n        _;\n    }\n\n }",
  "sourcePath": "C:\\Users\\youss\\Documents\\Courses\\blockchain_software\\project\\final_project_repo\\src\\contracts\\Medical.sol",
  "compiler": {
    "name": "solc",
    "version": "0.5.16+commit.9c3226ce.Emscripten.clang"
  },
  "schemaVersion": "3.0.23",
  "updatedAt": "2020-03-13T20:25:28.778Z",
  "networkType": "ethereum",
  "devdoc": {
    "methods": {}
  },
  "userdoc": {
    "methods": {}
  }
}