{
  "contractName": "Medical",
  "abi": [
    {
      "inputs": [],
      "payable": false,
      "stateMutability": "nonpayable",
      "type": "constructor"
    },
    {
      "constant": true,
      "inputs": [
        {
          "internalType": "uint256",
          "name": "",
          "type": "uint256"
        }
      ],
      "name": "doctorsAddresses",
      "outputs": [
        {
          "internalType": "address",
          "name": "",
          "type": "address"
        }
      ],
      "payable": false,
      "stateMutability": "view",
      "type": "function"
    },
    {
      "constant": true,
      "inputs": [
        {
          "internalType": "address",
          "name": "",
          "type": "address"
        }
      ],
      "name": "doesDoctorHaveAccess",
      "outputs": [
        {
          "internalType": "bool",
          "name": "",
          "type": "bool"
        }
      ],
      "payable": false,
      "stateMutability": "view",
      "type": "function"
    },
    {
      "constant": true,
      "inputs": [
        {
          "internalType": "address",
          "name": "_patientID",
          "type": "address"
        }
      ],
      "name": "accessDocument",
      "outputs": [
        {
          "internalType": "address",
          "name": "",
          "type": "address"
        }
      ],
      "payable": false,
      "stateMutability": "view",
      "type": "function"
    },
    {
      "constant": true,
      "inputs": [],
      "name": "returnDoctorsAddresses",
      "outputs": [
        {
          "internalType": "address[]",
          "name": "",
          "type": "address[]"
        }
      ],
      "payable": false,
      "stateMutability": "view",
      "type": "function"
    },
    {
      "constant": true,
      "inputs": [],
      "name": "returnD",
      "outputs": [
        {
          "internalType": "string",
          "name": "",
          "type": "string"
        }
      ],
      "payable": false,
      "stateMutability": "pure",
      "type": "function"
    },
    {
      "constant": false,
      "inputs": [
        {
          "internalType": "address",
          "name": "a",
          "type": "address"
        }
      ],
      "name": "grantAccessToDoctor",
      "outputs": [],
      "payable": false,
      "stateMutability": "nonpayable",
      "type": "function"
    },
    {
      "constant": false,
      "inputs": [
        {
          "internalType": "address",
          "name": "a",
          "type": "address"
        }
      ],
      "name": "revokeAccessFromDoctor",
      "outputs": [],
      "payable": false,
      "stateMutability": "nonpayable",
      "type": "function"
    },
    {
      "constant": false,
      "inputs": [
        {
          "internalType": "address",
          "name": "a",
          "type": "address"
        }
      ],
      "name": "registerDoctor",
      "outputs": [],
      "payable": false,
      "stateMutability": "nonpayable",
      "type": "function"
    },
    {
      "constant": true,
      "inputs": [
        {
          "internalType": "address",
          "name": "_patientID",
          "type": "address"
        }
      ],
      "name": "ListOfDoctors",
      "outputs": [
        {
          "internalType": "address[]",
          "name": "",
          "type": "address[]"
        }
      ],
      "payable": false,
      "stateMutability": "view",
      "type": "function"
    }
  ],
  "bytecode": "0x608060405234801561001057600080fd5b50336000806101000a81548173ffffffffffffffffffffffffffffffffffffffff021916908373ffffffffffffffffffffffffffffffffffffffff160217905550610ba6806100606000396000f3fe608060405234801561001057600080fd5b50600436106100935760003560e01c8063699ca99811610066578063699ca9981461011e5780637d9fd1c31461013a5780638776a6d3146101585780639a7ee77f14610188578063c1734194146101b857610093565b80631c8e251c146100985780631f12cfc4146100b45780635081ea0d146100d2578063629e559d14610102575b600080fd5b6100b260048036036100ad91908101906107c6565b6101e8565b005b6100bc6102b4565b6040516100c991906109b5565b60405180910390f35b6100ec60048036036100e791908101906107c6565b610342565b6040516100f9919061099a565b60405180910390f35b61011c600480360361011791908101906107c6565b610473565b005b610138600480360361013391908101906107c6565b610540565b005b610142610601565b60405161014f91906109f2565b60405180910390f35b610172600480360361016d91908101906107c6565b61063e565b60405161017f91906109d7565b60405180910390f35b6101a2600480360361019d91908101906107ef565b61065e565b6040516101af919061099a565b60405180910390f35b6101d260048036036101cd91908101906107c6565b61069a565b6040516101df91906109b5565b60405180910390f35b80600073ffffffffffffffffffffffffffffffffffffffff168173ffffffffffffffffffffffffffffffffffffffff161415610259576040517f08c379a000000000000000000000000000000000000000000000000000000000815260040161025090610a14565b60405180910390fd5b60018060008473ffffffffffffffffffffffffffffffffffffffff1673ffffffffffffffffffffffffffffffffffffffff16815260200190815260200160002060006101000a81548160ff0219169083151502179055505050565b6060600280548060200260200160405190810160405280929190818152602001828054801561033857602002820191906000526020600020905b8160009054906101000a900473ffffffffffffffffffffffffffffffffffffffff1673ffffffffffffffffffffffffffffffffffffffff16815260200190600101908083116102ee575b5050505050905090565b600081600073ffffffffffffffffffffffffffffffffffffffff168173ffffffffffffffffffffffffffffffffffffffff1614156103b5576040517f08c379a00000000000000000000000000000000000000000000000000000000081526004016103ac90610a14565b60405180910390fd5b60011515600160003373ffffffffffffffffffffffffffffffffffffffff1673ffffffffffffffffffffffffffffffffffffffff16815260200190815260200160002060009054906101000a900460ff16151514610448576040517f08c379a000000000000000000000000000000000000000000000000000000000815260040161043f90610a34565b60405180910390fd5b600360009054906101000a900473ffffffffffffffffffffffffffffffffffffffff16915050919050565b80600073ffffffffffffffffffffffffffffffffffffffff168173ffffffffffffffffffffffffffffffffffffffff1614156104e4576040517f08c379a00000000000000000000000000000000000000000000000000000000081526004016104db90610a14565b60405180910390fd5b6000600160008473ffffffffffffffffffffffffffffffffffffffff1673ffffffffffffffffffffffffffffffffffffffff16815260200190815260200160002060006101000a81548160ff0219169083151502179055505050565b60028190806001815401808255809150509060018203906000526020600020016000909192909190916101000a81548173ffffffffffffffffffffffffffffffffffffffff021916908373ffffffffffffffffffffffffffffffffffffffff160217905550506000600160008373ffffffffffffffffffffffffffffffffffffffff1673ffffffffffffffffffffffffffffffffffffffff16815260200190815260200160002060006101000a81548160ff02191690831515021790555050565b60606040518060400160405280600181526020017f6100000000000000000000000000000000000000000000000000000000000000815250905090565b60016020528060005260406000206000915054906101000a900460ff1681565b6002818154811061066b57fe5b906000526020600020016000915054906101000a900473ffffffffffffffffffffffffffffffffffffffff1681565b606081600073ffffffffffffffffffffffffffffffffffffffff168173ffffffffffffffffffffffffffffffffffffffff16141561070d576040517f08c379a000000000000000000000000000000000000000000000000000000000815260040161070490610a14565b60405180910390fd5b600280548060200260200160405190810160405280929190818152602001828054801561078f57602002820191906000526020600020905b8160009054906101000a900473ffffffffffffffffffffffffffffffffffffffff1673ffffffffffffffffffffffffffffffffffffffff1681526020019060010190808311610745575b5050505050915050919050565b6000813590506107ab81610b35565b92915050565b6000813590506107c081610b4c565b92915050565b6000602082840312156107d857600080fd5b60006107e68482850161079c565b91505092915050565b60006020828403121561080157600080fd5b600061080f848285016107b1565b91505092915050565b60006108248383610830565b60208301905092915050565b61083981610aa9565b82525050565b61084881610aa9565b82525050565b600061085982610a64565b6108638185610a87565b935061086e83610a54565b8060005b8381101561089f5781516108868882610818565b975061089183610a7a565b925050600181019050610872565b5085935050505092915050565b6108b581610abb565b82525050565b60006108c682610a6f565b6108d08185610a98565b93506108e0818560208601610af1565b6108e981610b24565b840191505092915050565b6000610901601583610a98565b91507f54686520757365722073686f756c6420657869737400000000000000000000006000830152602082019050919050565b6000610941603d83610a98565b91507f596f7520646f206e6f74206861766520616e2061636365737320746f2074686960008301527f732070617469656e742773206d65646963616c207265636f72647320210000006020830152604082019050919050565b60006020820190506109af600083018461083f565b92915050565b600060208201905081810360008301526109cf818461084e565b905092915050565b60006020820190506109ec60008301846108ac565b92915050565b60006020820190508181036000830152610a0c81846108bb565b905092915050565b60006020820190508181036000830152610a2d816108f4565b9050919050565b60006020820190508181036000830152610a4d81610934565b9050919050565b6000819050602082019050919050565b600081519050919050565b600081519050919050565b6000602082019050919050565b600082825260208201905092915050565b600082825260208201905092915050565b6000610ab482610ac7565b9050919050565b60008115159050919050565b600073ffffffffffffffffffffffffffffffffffffffff82169050919050565b6000819050919050565b60005b83811015610b0f578082015181840152602081019050610af4565b83811115610b1e576000848401525b50505050565b6000601f19601f8301169050919050565b610b3e81610aa9565b8114610b4957600080fd5b50565b610b5581610ae7565b8114610b6057600080fd5b5056fea365627a7a72315820b03444a582339464dc0862e10e532e3e38484e5173ff83fc7ba739f184f220e66c6578706572696d656e74616cf564736f6c63430005100040",
  "source": "pragma solidity ^0.5.16;\npragma experimental ABIEncoderV2;\n\ncontract Medical{\n    address owner;\n    constructor() public{\n        owner = msg.sender;\n    }\n    mapping(address => bool) public doesDoctorHaveAccess;\n    address[] public doctorsAddresses;\n    address private document;\n    function accessDocument ( address _patientID ) public view   userExists(_patientID) returns(address ){\n        require (doesDoctorHaveAccess [msg.sender] == true, \"You do not have an access to this patient's medical records !\");\n        return document;\n    }\n\n    function returnDoctorsAddresses() public view returns(address[] memory) {\n        return doctorsAddresses;\n    }\n\n    function returnD() public pure returns(string memory) {\n        return 'a';\n    }\n\n\n    function grantAccessToDoctor ( address a ) public userExists(a) {\n        doesDoctorHaveAccess[a] = true;\n    }\n\n    function revokeAccessFromDoctor ( address a )  public userExists(a) {\n        doesDoctorHaveAccess[a] = false;\n    }\n\n\n    function registerDoctor ( address a  )  public {\n        doctorsAddresses.push(a);\n        doesDoctorHaveAccess[a] = false;\n    }\n\n    function ListOfDoctors(address _patientID) public view  userExists(_patientID) returns(address[] memory) {\n        return doctorsAddresses;\n    }\n\n    modifier userExists(address _userId) {\n        require (_userId != address(0x0), 'The user should exist');\n        _;\n    }\n\n }",
  "sourcePath": "C:\\Users\\youss\\Documents\\Courses\\blockchain_software\\week10\\EthbayDappReact\\src\\contracts\\Medical.sol",
  "compiler": {
    "name": "solc",
    "version": "0.5.16+commit.9c3226ce.Emscripten.clang"
  },
  "schemaVersion": "3.0.23",
  "updatedAt": "2020-03-13T03:04:31.964Z",
  "networkType": "ethereum",
  "devdoc": {
    "methods": {}
  },
  "userdoc": {
    "methods": {}
  }
}