{
  "contractName": "Medical",
  "abi": [
    {
      "constant": true,
      "inputs": [
        {
          "internalType": "string",
          "name": "",
          "type": "string"
        }
      ],
      "name": "doesDoctorHaveAccess",
      "outputs": [
        {
          "internalType": "bool",
          "name": "",
          "type": "bool"
        }
      ],
      "payable": false,
      "stateMutability": "view",
      "type": "function"
    },
    {
      "constant": true,
      "inputs": [],
      "name": "returnDoctorsPubKeys",
      "outputs": [
        {
          "internalType": "string[]",
          "name": "",
          "type": "string[]"
        }
      ],
      "payable": false,
      "stateMutability": "view",
      "type": "function"
    },
    {
      "constant": false,
      "inputs": [
        {
          "internalType": "string",
          "name": "a",
          "type": "string"
        }
      ],
      "name": "grantAccessToDoctor",
      "outputs": [],
      "payable": false,
      "stateMutability": "nonpayable",
      "type": "function"
    },
    {
      "constant": true,
      "inputs": [],
      "name": "amIOwner",
      "outputs": [
        {
          "internalType": "bool",
          "name": "",
          "type": "bool"
        }
      ],
      "payable": false,
      "stateMutability": "view",
      "type": "function"
    },
    {
      "constant": false,
      "inputs": [
        {
          "internalType": "string",
          "name": "a",
          "type": "string"
        }
      ],
      "name": "revokeAccessFromDoctor",
      "outputs": [],
      "payable": false,
      "stateMutability": "nonpayable",
      "type": "function"
    },
    {
      "constant": false,
      "inputs": [
        {
          "internalType": "string",
          "name": "a",
          "type": "string"
        }
      ],
      "name": "storeFileHash",
      "outputs": [],
      "payable": false,
      "stateMutability": "nonpayable",
      "type": "function"
    },
    {
      "constant": true,
      "inputs": [],
      "name": "getFileHash",
      "outputs": [
        {
          "internalType": "string",
          "name": "",
          "type": "string"
        }
      ],
      "payable": false,
      "stateMutability": "view",
      "type": "function"
    },
    {
      "constant": false,
      "inputs": [
        {
          "internalType": "string",
          "name": "a",
          "type": "string"
        }
      ],
      "name": "registerDoctor",
      "outputs": [],
      "payable": false,
      "stateMutability": "nonpayable",
      "type": "function"
    }
  ],
  "bytecode": "0x6080604052336000806101000a81548173ffffffffffffffffffffffffffffffffffffffff021916908373ffffffffffffffffffffffffffffffffffffffff16021790555034801561005057600080fd5b50610d19806100606000396000f3fe608060405234801561001057600080fd5b50600436106100885760003560e01c80638493f71f1161005b5780638493f71f146101155780638f09ab5b14610133578063f8f1cb611461014f578063fb6cbd061461016b57610088565b80631af36f591461008d5780634e4ab830146100bd5780635c2ae735146100db578063843c56a3146100f9575b600080fd5b6100a760048036036100a291908101906108bd565b610187565b6040516100b49190610b19565b60405180910390f35b6100c56101bd565b6040516100d29190610b19565b60405180910390f35b6100e3610214565b6040516100f09190610af7565b60405180910390f35b610113600480360361010e91908101906108fe565b6102fd565b005b61011d6103c6565b60405161012a9190610b34565b60405180910390f35b61014d600480360361014891908101906108fe565b6104f7565b005b610169600480360361016491908101906108fe565b6105ff565b005b610185600480360361018091908101906108fe565b6106c7565b005b6001818051602081018201805184825260208301602085012081835280955050505050506000915054906101000a900460ff1681565b60008060009054906101000a900473ffffffffffffffffffffffffffffffffffffffff1673ffffffffffffffffffffffffffffffffffffffff163373ffffffffffffffffffffffffffffffffffffffff1614905090565b60606002805480602002602001604051908101604052809291908181526020016000905b828210156102f4578382906000526020600020018054600181600116156101000203166002900480601f0160208091040260200160405190810160405280929190818152602001828054600181600116156101000203166002900480156102e05780601f106102b5576101008083540402835291602001916102e0565b820191906000526020600020905b8154815290600101906020018083116102c357829003601f168201915b505050505081526020019060010190610238565b50505050905090565b6000809054906101000a900473ffffffffffffffffffffffffffffffffffffffff1673ffffffffffffffffffffffffffffffffffffffff163373ffffffffffffffffffffffffffffffffffffffff161461038c576040517f08c379a000000000000000000000000000000000000000000000000000000000815260040161038390610b56565b60405180910390fd5b600060018260405161039e9190610ae0565b908152602001604051809103902060006101000a81548160ff02191690831515021790555050565b60606000809054906101000a900473ffffffffffffffffffffffffffffffffffffffff1673ffffffffffffffffffffffffffffffffffffffff163373ffffffffffffffffffffffffffffffffffffffff1614610457576040517f08c379a000000000000000000000000000000000000000000000000000000000815260040161044e90610b56565b60405180910390fd5b60038054600181600116156101000203166002900480601f0160208091040260200160405190810160405280929190818152602001828054600181600116156101000203166002900480156104ed5780601f106104c2576101008083540402835291602001916104ed565b820191906000526020600020905b8154815290600101906020018083116104d057829003601f168201915b5050505050905090565b6000809054906101000a900473ffffffffffffffffffffffffffffffffffffffff1673ffffffffffffffffffffffffffffffffffffffff163373ffffffffffffffffffffffffffffffffffffffff1614610586576040517f08c379a000000000000000000000000000000000000000000000000000000000815260040161057d90610b56565b60405180910390fd5b60028190806001815401808255809150509060018203906000526020600020016000909192909190915090805190602001906105c3929190610770565b505060006001826040516105d79190610ae0565b908152602001604051809103902060006101000a81548160ff02191690831515021790555050565b6000809054906101000a900473ffffffffffffffffffffffffffffffffffffffff1673ffffffffffffffffffffffffffffffffffffffff163373ffffffffffffffffffffffffffffffffffffffff161461068e576040517f08c379a000000000000000000000000000000000000000000000000000000000815260040161068590610b56565b60405180910390fd5b6001808260405161069f9190610ae0565b908152602001604051809103902060006101000a81548160ff02191690831515021790555050565b6000809054906101000a900473ffffffffffffffffffffffffffffffffffffffff1673ffffffffffffffffffffffffffffffffffffffff163373ffffffffffffffffffffffffffffffffffffffff1614610756576040517f08c379a000000000000000000000000000000000000000000000000000000000815260040161074d90610b56565b60405180910390fd5b806003908051906020019061076c929190610770565b5050565b828054600181600116156101000203166002900490600052602060002090601f016020900481019282601f106107b157805160ff19168380011785556107df565b828001600101855582156107df579182015b828111156107de5782518255916020019190600101906107c3565b5b5090506107ec91906107f0565b5090565b61081291905b8082111561080e5760008160009055506001016107f6565b5090565b90565b600082601f83011261082657600080fd5b813561083961083482610ba3565b610b76565b9150808252602083016020830185838301111561085557600080fd5b610860838284610c83565b50505092915050565b600082601f83011261087a57600080fd5b813561088d61088882610bcf565b610b76565b915080825260208301602083018583830111156108a957600080fd5b6108b4838284610c83565b50505092915050565b6000602082840312156108cf57600080fd5b600082013567ffffffffffffffff8111156108e957600080fd5b6108f584828501610815565b91505092915050565b60006020828403121561091057600080fd5b600082013567ffffffffffffffff81111561092a57600080fd5b61093684828501610869565b91505092915050565b600061094b8383610a41565b905092915050565b600061095e82610c0b565b6109688185610c39565b93508360208202850161097a85610bfb565b8060005b858110156109b65784840389528151610997858261093f565b94506109a283610c2c565b925060208a0199505060018101905061097e565b50829750879550505050505092915050565b6109d181610c77565b82525050565b60006109e282610c21565b6109ec8185610c5b565b93506109fc818560208601610c92565b610a0581610cc5565b840191505092915050565b6000610a1b82610c21565b610a258185610c6c565b9350610a35818560208601610c92565b80840191505092915050565b6000610a4c82610c16565b610a568185610c4a565b9350610a66818560208601610c92565b610a6f81610cc5565b840191505092915050565b6000610a87602683610c5b565b91507f596f7520617265206e6f7420746865206f776e6572206f66207468697320636f60008301527f6e747261637400000000000000000000000000000000000000000000000000006020830152604082019050919050565b6000610aec8284610a10565b915081905092915050565b60006020820190508181036000830152610b118184610953565b905092915050565b6000602082019050610b2e60008301846109c8565b92915050565b60006020820190508181036000830152610b4e81846109d7565b905092915050565b60006020820190508181036000830152610b6f81610a7a565b9050919050565b6000604051905081810181811067ffffffffffffffff82111715610b9957600080fd5b8060405250919050565b600067ffffffffffffffff821115610bba57600080fd5b601f19601f8301169050602081019050919050565b600067ffffffffffffffff821115610be657600080fd5b601f19601f8301169050602081019050919050565b6000819050602082019050919050565b600081519050919050565b600081519050919050565b600081519050919050565b6000602082019050919050565b600082825260208201905092915050565b600082825260208201905092915050565b600082825260208201905092915050565b600081905092915050565b60008115159050919050565b82818337600083830152505050565b60005b83811015610cb0578082015181840152602081019050610c95565b83811115610cbf576000848401525b50505050565b6000601f19601f830116905091905056fea365627a7a72315820626f6b7682d91754dfbe743a04df9f7e4f701047865bc17a8c09870519427e096c6578706572696d656e74616cf564736f6c63430005100040",
  "source": "pragma solidity ^0.5.16;\npragma experimental ABIEncoderV2;\n\ncontract Medical{\n    address private owner = msg.sender;\n    mapping(string => bool) public doesDoctorHaveAccess;\n    string[] private doctorsPubKeys;\n    string private documentHash;\n\n    function returnDoctorsPubKeys() public view returns(string[] memory)  {\n        return doctorsPubKeys;\n    }\n\n    function grantAccessToDoctor ( string memory a ) public isOwner() {\n        doesDoctorHaveAccess[a] = true;\n    }\n\n    function amIOwner() public view returns(bool) {\n        return msg.sender == owner;\n    }\n\n    function revokeAccessFromDoctor ( string memory a )  public isOwner() {\n        doesDoctorHaveAccess[a] = false;\n    }\n\n    function storeFileHash ( string memory a )  public isOwner(){\n        documentHash = a;\n    }\n\n    function getFileHash () public isOwner() view  returns(string memory) {\n        return documentHash;\n    }\n\n    function registerDoctor ( string memory a   )  public isOwner(){\n        doctorsPubKeys.push(a);\n        doesDoctorHaveAccess[a] = false;\n    }\n\n    modifier userExists(address _userId) {\n        require (_userId != address(0x0), 'The user should exist');\n        _;\n    }\n\n    modifier isOwner() {\n        require(msg.sender == owner, 'You are not the owner of this contract');\n        _;\n    }\n\n    modifier reject() {\n        require(true == false, 'Not reasonable');\n        _;\n    }\n\n }",
  "sourcePath": "C:\\Users\\youss\\Documents\\Courses\\blockchain_software\\project\\dapp\\src\\contracts\\Medical.sol",
  "compiler": {
    "name": "solc",
    "version": "0.5.16+commit.9c3226ce.Emscripten.clang"
  },
  "schemaVersion": "3.0.23",
  "updatedAt": "2020-03-25T03:39:20.098Z",
  "networkType": "ethereum",
  "devdoc": {
    "methods": {}
  },
  "userdoc": {
    "methods": {}
  }
}